{
  "contractName": "LoanRequest",
  "abi": [
    {
      "constant": true,
      "inputs": [],
      "name": "hasClosed",
      "outputs": [
        {
          "name": "",
          "type": "bool"
        }
      ],
      "payable": false,
      "stateMutability": "view",
      "type": "function"
    },
    {
      "constant": true,
      "inputs": [],
      "name": "rate",
      "outputs": [
        {
          "name": "",
          "type": "uint256"
        }
      ],
      "payable": false,
      "stateMutability": "view",
      "type": "function"
    },
    {
      "constant": true,
      "inputs": [],
      "name": "cap",
      "outputs": [
        {
          "name": "",
          "type": "uint256"
        }
      ],
      "payable": false,
      "stateMutability": "view",
      "type": "function"
    },
    {
      "constant": true,
      "inputs": [],
      "name": "ownershipTokenRate",
      "outputs": [
        {
          "name": "",
          "type": "uint256"
        }
      ],
      "payable": false,
      "stateMutability": "view",
      "type": "function"
    },
    {
      "constant": true,
      "inputs": [],
      "name": "goal",
      "outputs": [
        {
          "name": "",
          "type": "uint256"
        }
      ],
      "payable": false,
      "stateMutability": "view",
      "type": "function"
    },
    {
      "constant": true,
      "inputs": [],
      "name": "weiRaised",
      "outputs": [
        {
          "name": "",
          "type": "uint256"
        }
      ],
      "payable": false,
      "stateMutability": "view",
      "type": "function"
    },
    {
      "constant": true,
      "inputs": [],
      "name": "isOpen",
      "outputs": [
        {
          "name": "",
          "type": "bool"
        }
      ],
      "payable": false,
      "stateMutability": "view",
      "type": "function"
    },
    {
      "constant": false,
      "inputs": [
        {
          "name": "beneficiary",
          "type": "address"
        }
      ],
      "name": "withdrawTokens",
      "outputs": [],
      "payable": false,
      "stateMutability": "nonpayable",
      "type": "function"
    },
    {
      "constant": true,
      "inputs": [],
      "name": "closingTime",
      "outputs": [
        {
          "name": "",
          "type": "uint256"
        }
      ],
      "payable": false,
      "stateMutability": "view",
      "type": "function"
    },
    {
      "constant": false,
      "inputs": [],
      "name": "finalize",
      "outputs": [],
      "payable": false,
      "stateMutability": "nonpayable",
      "type": "function"
    },
    {
      "constant": true,
      "inputs": [],
      "name": "capReached",
      "outputs": [
        {
          "name": "",
          "type": "bool"
        }
      ],
      "payable": false,
      "stateMutability": "view",
      "type": "function"
    },
    {
      "constant": true,
      "inputs": [],
      "name": "wallet",
      "outputs": [
        {
          "name": "",
          "type": "address"
        }
      ],
      "payable": false,
      "stateMutability": "view",
      "type": "function"
    },
    {
      "constant": true,
      "inputs": [
        {
          "name": "account",
          "type": "address"
        }
      ],
      "name": "balanceOf",
      "outputs": [
        {
          "name": "",
          "type": "uint256"
        }
      ],
      "payable": false,
      "stateMutability": "view",
      "type": "function"
    },
    {
      "constant": true,
      "inputs": [],
      "name": "goalReached",
      "outputs": [
        {
          "name": "",
          "type": "bool"
        }
      ],
      "payable": false,
      "stateMutability": "view",
      "type": "function"
    },
    {
      "constant": true,
      "inputs": [],
      "name": "finalized",
      "outputs": [
        {
          "name": "",
          "type": "bool"
        }
      ],
      "payable": false,
      "stateMutability": "view",
      "type": "function"
    },
    {
      "constant": true,
      "inputs": [],
      "name": "requester",
      "outputs": [
        {
          "name": "",
          "type": "address"
        }
      ],
      "payable": false,
      "stateMutability": "view",
      "type": "function"
    },
    {
      "constant": true,
      "inputs": [],
      "name": "openingTime",
      "outputs": [
        {
          "name": "",
          "type": "uint256"
        }
      ],
      "payable": false,
      "stateMutability": "view",
      "type": "function"
    },
    {
      "constant": false,
      "inputs": [
        {
          "name": "refundee",
          "type": "address"
        }
      ],
      "name": "claimRefund",
      "outputs": [],
      "payable": false,
      "stateMutability": "nonpayable",
      "type": "function"
    },
    {
      "constant": true,
      "inputs": [],
      "name": "token",
      "outputs": [
        {
          "name": "",
          "type": "address"
        }
      ],
      "payable": false,
      "stateMutability": "view",
      "type": "function"
    },
    {
      "inputs": [
        {
          "name": "_requester",
          "type": "address"
        },
        {
          "name": "_ownershipToken",
          "type": "address"
        },
        {
          "name": "_loanCurrency",
          "type": "address"
        },
        {
          "name": "_principal",
          "type": "uint256"
        },
        {
          "name": "_interestRate",
          "type": "uint256"
        },
        {
          "name": "_repayments",
          "type": "uint256"
        },
        {
          "name": "_repaymentSchedule",
          "type": "uint256[]"
        }
      ],
      "payable": false,
      "stateMutability": "nonpayable",
      "type": "constructor"
    },
    {
      "payable": true,
      "stateMutability": "payable",
      "type": "fallback"
    },
    {
      "anonymous": false,
      "inputs": [
        {
          "indexed": false,
          "name": "released",
          "type": "uint256"
        }
      ],
      "name": "FundsReleased",
      "type": "event"
    },
    {
      "anonymous": false,
      "inputs": [
        {
          "indexed": false,
          "name": "withdrawn",
          "type": "uint256"
        }
      ],
      "name": "FundsWithdrawn",
      "type": "event"
    },
    {
      "anonymous": false,
      "inputs": [
        {
          "indexed": false,
          "name": "repayment",
          "type": "uint256"
        },
        {
          "indexed": false,
          "name": "cycles",
          "type": "uint256"
        }
      ],
      "name": "LoanRepayed",
      "type": "event"
    },
    {
      "anonymous": false,
      "inputs": [],
      "name": "CrowdsaleFinalized",
      "type": "event"
    },
    {
      "anonymous": false,
      "inputs": [
        {
          "indexed": false,
          "name": "prevClosingTime",
          "type": "uint256"
        },
        {
          "indexed": false,
          "name": "newClosingTime",
          "type": "uint256"
        }
      ],
      "name": "TimedCrowdsaleExtended",
      "type": "event"
    },
    {
      "anonymous": false,
      "inputs": [
        {
          "indexed": true,
          "name": "purchaser",
          "type": "address"
        },
        {
          "indexed": true,
          "name": "beneficiary",
          "type": "address"
        },
        {
          "indexed": false,
          "name": "value",
          "type": "uint256"
        },
        {
          "indexed": false,
          "name": "amount",
          "type": "uint256"
        }
      ],
      "name": "TokensPurchased",
      "type": "event"
    },
    {
      "constant": true,
      "inputs": [],
      "name": "totalRepaymentDue",
      "outputs": [
        {
          "name": "",
          "type": "uint256"
        }
      ],
      "payable": false,
      "stateMutability": "view",
      "type": "function"
    },
    {
      "constant": false,
      "inputs": [
        {
          "name": "amount",
          "type": "uint256"
        }
      ],
      "name": "repayLoan",
      "outputs": [
        {
          "name": "",
          "type": "bool"
        }
      ],
      "payable": false,
      "stateMutability": "nonpayable",
      "type": "function"
    },
    {
      "constant": false,
      "inputs": [],
      "name": "repayLoan",
      "outputs": [
        {
          "name": "",
          "type": "bool"
        }
      ],
      "payable": false,
      "stateMutability": "nonpayable",
      "type": "function"
    },
    {
      "constant": false,
      "inputs": [
        {
          "name": "beneficiary",
          "type": "address"
        },
        {
          "name": "amount",
          "type": "uint256"
        }
      ],
      "name": "buyTokens",
      "outputs": [],
      "payable": false,
      "stateMutability": "nonpayable",
      "type": "function"
    },
    {
      "constant": false,
      "inputs": [
        {
          "name": "beneficiary",
          "type": "address"
        }
      ],
      "name": "buyTokens",
      "outputs": [],
      "payable": true,
      "stateMutability": "payable",
      "type": "function"
    }
  ],
  "bytecode": "0x60806040523480156200001157600080fd5b5060405162001aa038038062001aa0833981018060405260e08110156200003757600080fd5b8151602083015160408401516060850151608086015160a087015160c08801805196989597949693959294919391830192916401000000008111156200007c57600080fd5b820160208101848111156200009057600080fd5b8151856020820283011164010000000082111715620000ae57600080fd5b5050600160008190559093508692508291504290620f4240820190308b811515620000d857600080fd5b600160a060020a0381161515620000ee57600080fd5b60039290925560028054600160a060020a03928316600160a060020a03199182161790915560018054929093169116179055428210156200012e57600080fd5b8181116200013b57600080fd5b6005919091556006556007805460ff19169055600081116200015c57600080fd5b6200016f64010000000062000256810204565b6200017962000266565b600160a060020a03909116815260405190819003602001906000f080158015620001a7573d6000803e3d6000fd5b5060098054600160a060020a031916600160a060020a039290921691909117905560085560008111620001d957600080fd5b600b5580518214620001ea57600080fd5b60108490556011839055601282905580516200020e90601590602084019062000277565b5050600c8054600160a060020a0319908116600160a060020a0398891617909155600d80548216968816969096179095555050600e80549093169190931617905550620002e4565b600254600160a060020a03165b90565b604051610759806200134783390190565b828054828255906000526020600020908101928215620002b5579160200282015b82811115620002b557825182559160200191906001019062000298565b50620002c3929150620002c7565b5090565b6200026391905b80821115620002c35760008155600101620002ce565b61105380620002f46000396000f3fe60806040526004361061014f5760003560e060020a900480634f935945116100ba578063b61e96a511610073578063b61e96a51461038b578063b7a8807c146103a0578063bffa55d5146103b5578063ec8ac4d8146103e8578063f966ade71461040e578063fc0c546a146104235761014f565b80634f935945146102be578063521eb273146102d357806370a08231146103045780637d3d652214610337578063ab7b1c891461034c578063b3f05b97146103765761014f565b80634042b66f1161010c5780634042b66f1461022257806347535d7b14610237578063494bfd3d1461024c57806349df728c146102615780634b6753bc146102945780634bb278f3146102a95761014f565b80630752881a1461015a5780631515bc2b146101935780632c4e722e146101bc578063355274ea146101e357806336ef000d146101f8578063401938831461020d575b61015833610438565b005b34801561016657600080fd5b506101586004803603604081101561017d57600080fd5b50600160a060020a0381351690602001356104f4565b34801561019f57600080fd5b506101a86105d5565b604080519115158252519081900360200190f35b3480156101c857600080fd5b506101d16105de565b60408051918252519081900360200190f35b3480156101ef57600080fd5b506101d16105e4565b34801561020457600080fd5b506101d16105ea565b34801561021957600080fd5b506101d16105ef565b34801561022e57600080fd5b506101d16105f5565b34801561024357600080fd5b506101a86105fb565b34801561025857600080fd5b506101d1610616565b34801561026d57600080fd5b506101586004803603602081101561028457600080fd5b5035600160a060020a0316610648565b3480156102a057600080fd5b506101d161067a565b3480156102b557600080fd5b50610158610680565b3480156102ca57600080fd5b506101a86106e3565b3480156102df57600080fd5b506102e86106f7565b60408051600160a060020a039092168252519081900360200190f35b34801561031057600080fd5b506101d16004803603602081101561032757600080fd5b5035600160a060020a0316610706565b34801561034357600080fd5b506101a8610721565b34801561035857600080fd5b506101a86004803603602081101561036f57600080fd5b503561072e565b34801561038257600080fd5b506101a86107ad565b34801561039757600080fd5b506102e86107b6565b3480156103ac57600080fd5b506101d16107c5565b3480156103c157600080fd5b50610158600480360360208110156103d857600080fd5b5035600160a060020a03166107cb565b610158600480360360208110156103fe57600080fd5b5035600160a060020a0316610438565b34801561041a57600080fd5b506101a8610872565b34801561042f57600080fd5b506102e861087e565b60008054600101908190553461044e838261088d565b6000610459826108bd565b60045490915061046f908363ffffffff6108da16565b60045561047c84826108f3565b60408051838152602081018390528151600160a060020a0387169233927f6faf93231a456e552dbc9961f58d9713ee4f2e69d15f1975b050ef0911053a7b929081900390910190a36104ce84836104f0565b6104d661093c565b6104e084836104f0565b505060005481146104f057600080fd5b5050565b60008054600101908190556105253361050b6106f7565b600e54600160a060020a031691908563ffffffff6109a216565b61052f838361088d565b600061053a836108bd565b600454909150610550908463ffffffff6108da16565b60045561055d84826108f3565b60408051848152602081018390528151600160a060020a0387169233927f6faf93231a456e552dbc9961f58d9713ee4f2e69d15f1975b050ef0911053a7b929081900390910190a36105af84846104f0565b6105b761093c565b6105c184846104f0565b5060005481146105d057600080fd5b505050565b60065442115b90565b60035490565b600b5490565b600181565b60085490565b60045490565b6000600554421015801561061157506006544211155b905090565b600080610621610a30565b90508015156106345760009150506105db565b610640600f5482610a7f565b9150506105db565b6106506107ad565b151561065b57600080fd5b610663610721565b151561066e57600080fd5b61067781610add565b50565b60065490565b60075460ff161561069057600080fd5b6106986105d5565b15156106a357600080fd5b6007805460ff191660011790556106b8610b38565b6040517f9270cc390c096600a1c17c44345a1ba689fafd99d97487b10cfccf86cf73183690600090a1565b6000600b546106f06105f5565b1015905090565b600254600160a060020a031690565b600160a060020a03166000908152600a602052604090205490565b60006008546106f06105f5565b600080600061073c84610c92565b600e54919350915061075890600160a060020a03163384610d25565b151561076357600080fd5b600f805482019055604080518381526020810183905281517ff44c63a3d75bcd98534aae05d2e718fe67a90b75d392d0cfcadb798f871ebd07929181900390910190a15050919050565b60075460ff1690565b600c54600160a060020a031681565b60055490565b6107d36107ad565b15156107de57600080fd5b6107e6610721565b156107f057600080fd5b600954604080517f51cff8d9000000000000000000000000000000000000000000000000000000008152600160a060020a038481166004830152915191909216916351cff8d991602480830192600092919082900301818387803b15801561085757600080fd5b505af115801561086b573d6000803e3d6000fd5b5050505050565b6000610611600061072e565b600154600160a060020a031690565b6108978282610dcd565b600b546108b2826108a66105f5565b9063ffffffff6108da16565b11156104f057600080fd5b60006108d460035483610dea90919063ffffffff16565b92915050565b6000828201838110156108ec57600080fd5b9392505050565b600160a060020a0382166000908152600a602052604090205461091c908263ffffffff6108da16565b600160a060020a039092166000908152600a602052604090209190915550565b600954604080517ff340fa010000000000000000000000000000000000000000000000000000000081523360048201529051600160a060020a039092169163f340fa01913491602480830192600092919082900301818588803b15801561085757600080fd5b60408051600160a060020a0385811660248301528416604482015260648082018490528251808303909101815260849091019091526020810180517bffffffffffffffffffffffffffffffffffffffffffffffffffffffff167f23b872dd00000000000000000000000000000000000000000000000000000000179052610a2a908590610e15565b50505050565b600080610a3e600f54610f14565b601454909150428290039060009082811515610a5657fe5b04905060106002015481600f540111610a6f5780610a77565b600f54601254035b905050505090565b6000806000610a8c610f25565b9050845b848601811015610ad3576015805483919083908110610aab57fe5b9060005260206000200154811515610abf57fe5b601054919004029290920191600101610a90565b5090949350505050565b610ae56105d5565b1515610af057600080fd5b600160a060020a0381166000908152600a6020526040812054908111610b1557600080fd5b600160a060020a0382166000908152600a60205260408120556104f08282610f61565b610b40610721565b15610c2057600960009054906101000a9004600160a060020a0316600160a060020a03166343d726d66040518163ffffffff1660e060020a028152600401600060405180830381600087803b158015610b9857600080fd5b505af1158015610bac573d6000803e3d6000fd5b50505050600960009054906101000a9004600160a060020a0316600160a060020a0316639af6549a6040518163ffffffff1660e060020a028152600401600060405180830381600087803b158015610c0357600080fd5b505af1158015610c17573d6000803e3d6000fd5b50505050610c8c565b600960009054906101000a9004600160a060020a0316600160a060020a0316638c52dc416040518163ffffffff1660e060020a028152600401600060405180830381600087803b158015610c7357600080fd5b505af1158015610c87573d6000803e3d6000fd5b505050505b610c905b565b6000806000610c9f610a30565b90506000610cab610616565b90506000808287101580610cbd575086155b15610cd05750909350909150610d209050565b60005b8481108015610ce157508782105b15610d13576000610cf7600f5483600101610a7f565b9050808910610d0a578160010193508092505b50600101610cd3565b5094509250610d20915050565b915091565b604080517f23b872dd000000000000000000000000000000000000000000000000000000008152600160a060020a0384811660048301523060248301526044820184905291516000928616916323b872dd91606480830192602092919082900301818787803b158015610d9757600080fd5b505af1158015610dab573d6000803e3d6000fd5b505050506040513d6020811015610dc157600080fd5b50600195945050505050565b610dd56105fb565b1515610de057600080fd5b6104f08282610f7e565b6000821515610dfb575060006108d4565b828202828482811515610e0a57fe5b04146108ec57600080fd5b610e2782600160a060020a0316610f9f565b1515610e3257600080fd5b6000606083600160a060020a0316836040518082805190602001908083835b60208310610e705780518252601f199092019160209182019101610e51565b6001836020036101000a0380198251168184511680821785525050505050509050019150506000604051808303816000865af19150503d8060008114610ed2576040519150601f19603f3d011682016040523d82523d6000602084013e610ed7565b606091505b5091509150811515610ee857600080fd5b600081511115610a2a57808060200190516020811015610f0757600080fd5b50511515610a2a57600080fd5b601454601354600192909201020190565b600080805b601254811015610f5b576015805482908110610f4257fe5b6000918252602090912001549190910190600101610f2a565b50905090565b6001546104f090600160a060020a0316838363ffffffff610fa716565b600160a060020a0382161515610f9357600080fd5b8015156104f057600080fd5b6000903b1190565b60408051600160a060020a038416602482015260448082018490528251808303909101815260649091019091526020810180517bffffffffffffffffffffffffffffffffffffffffffffffffffffffff167fa9059cbb000000000000000000000000000000000000000000000000000000001790526105d0908490610e1556fea165627a7a7230582052873f12bc8c6325fe0943ee5bfa30fb7d16782528de89bb0e461d05f1a0537d0029608060405234801561001057600080fd5b506040516020806107598339810180604052602081101561003057600080fd5b505160008054600160a060020a03191633179081905560408051600160a060020a03929092168252517f4101e71e974f68df5e9730cc223280b41654676bbb052cdcc735c3337e64d2d99181900360200190a1600160a060020a038116151561009857600080fd5b6002805460ff19600160a060020a03939093166101000261010060a860020a031990911617919091169055610687806100d26000396000f3fe6080604052600436106100b9576000357c0100000000000000000000000000000000000000000000000000000000900480638c52dc41116100815780638c52dc41146101b35780639af6549a146101c8578063c19d93fb146101dd578063c6dbdf6114610216578063e3a9db1a1461022b578063f340fa0114610270576100b9565b80632348238c146100be57806338af3eed146100f357806343d726d61461012457806351cff8d914610139578063685ca1941461016c575b600080fd5b3480156100ca57600080fd5b506100f1600480360360208110156100e157600080fd5b5035600160a060020a0316610296565b005b3480156100ff57600080fd5b50610108610329565b60408051600160a060020a039092168252519081900360200190f35b34801561013057600080fd5b506100f161033d565b34801561014557600080fd5b506100f16004803603602081101561015c57600080fd5b5035600160a060020a03166103a8565b34801561017857600080fd5b5061019f6004803603602081101561018f57600080fd5b5035600160a060020a03166103c8565b604080519115158252519081900360200190f35b3480156101bf57600080fd5b506100f16103e4565b3480156101d457600080fd5b506100f1610450565b3480156101e957600080fd5b506101f26104ac565b6040518082600281111561020257fe5b60ff16815260200191505060405180910390f35b34801561022257600080fd5b506101086104b5565b34801561023757600080fd5b5061025e6004803603602081101561024e57600080fd5b5035600160a060020a03166104c4565b60408051918252519081900360200190f35b6100f16004803603602081101561028657600080fd5b5035600160a060020a03166104df565b600054600160a060020a031633146102ad57600080fd5b600160a060020a03811615156102c257600080fd5b6000805473ffffffffffffffffffffffffffffffffffffffff1916600160a060020a03838116919091179182905560408051929091168252517f4101e71e974f68df5e9730cc223280b41654676bbb052cdcc735c3337e64d2d9916020908290030190a150565b6002546101009004600160a060020a031690565b600054600160a060020a0316331461035457600080fd5b60006002805460ff169081111561036757fe5b1461037157600080fd5b6002805460ff1916811790556040517f088672c3a6e342f7cd94a65ba63b79df24a8973927b4d05d803c44bbf787d12f90600090a1565b6103b1816103c8565b15156103bc57600080fd5b6103c581610505565b50565b600060016002805460ff16908111156103dd57fe5b1492915050565b600054600160a060020a031633146103fb57600080fd5b60006002805460ff169081111561040e57fe5b1461041857600080fd5b6002805460ff191660011790556040517f599d8e5a83cffb867d051598c4d70e805d59802d8081c1c7d6dffc5b6aca2b8990600090a1565b6002805460ff168181111561046157fe5b1461046b57600080fd5b600254604051600160a060020a036101009092049190911690303180156108fc02916000818181858888f193505050501580156103c5573d6000803e3d6000fd5b60025460ff1690565b600054600160a060020a031690565b600160a060020a031660009081526001602052604090205490565b60006002805460ff16908111156104f257fe5b146104fc57600080fd5b6103c5816105aa565b600054600160a060020a0316331461051c57600080fd5b600160a060020a038116600081815260016020526040808220805490839055905190929183156108fc02918491818181858888f19350505050158015610566573d6000803e3d6000fd5b50604080518281529051600160a060020a038416917f7084f5476618d8e60b11ef0d7d3f06914655adb8793e28ff7f018d4c76d505d5919081900360200190a25050565b600054600160a060020a031633146105c157600080fd5b600160a060020a03811660009081526001602052604090205434906105ec908263ffffffff61064216565b600160a060020a038316600081815260016020908152604091829020939093558051848152905191927f2da466a7b24304f47e87fa2e1e5a81b9831ce54fec19055ce277ca2f39ba42c492918290030190a25050565b60008282018381101561065457600080fd5b939250505056fea165627a7a72305820e0f304474848f42ab1bb682023a7b2502b8f73037dd0067c7320a97da9b399b40029",
  "source": "pragma solidity ^0.5.2;\n\nimport \"./crowdsale/distribution/RefundablePostDeliveryCrowdsale.sol\";\nimport \"./crowdsale/validation/CappedCrowdsale.sol\";\nimport \"openzeppelin-solidity/contracts/token/ERC20/IERC20.sol\";\nimport \"./TokenTransfer.sol\";\n\n//TODO: Try extending crowdsale\n/*\n    Differences from crowdsale: Rather than paying with ether, you pay with the token of choice.\n    You must approve before calling.\n\n    The fallback function just refunds - we don't accept ether here. (Need to evaluate re-entrancy)\n\n    So we may have to override huge parts of it, but we'll see\n*/\n\ncontract LoanRequest is RefundablePostDeliveryCrowdsale, CappedCrowdsale, TokenTransfer {\n    address public requester;\n    IERC20 ownershipToken;\n    IERC20 loanCurrency;\n\n    uint public constant ownershipTokenRate = 1;\n    uint private nextRepayment;\n\n    struct Loan {\n        uint principal;\n        uint interestRate;\n        uint repayments;\n        uint startTime;\n        uint repaymentTenor;\n        uint[] repaymentSchedule;\n    }\n\n    Loan loan;\n\n    event FundsReleased(uint released);\n    event FundsWithdrawn(uint withdrawn);\n    event LoanRepayed(uint repayment, uint cycles);\n\n    constructor(\n        address _requester,\n        address _ownershipToken,\n        address _loanCurrency,\n        uint _principal,\n        uint _interestRate,\n        uint _repayments,\n        uint[] memory _repaymentSchedule\n    ) RefundableCrowdsale(_principal) TimedCrowdsale(now, now + 1000000) CappedCrowdsale(_principal) Crowdsale(ownershipTokenRate, address(this), IERC20(_ownershipToken)) public {\n        require(_repaymentSchedule.length == _repayments);\n\n        loan.principal = _principal;\n        loan.interestRate = _interestRate;\n        loan.repayments = _repayments;\n        loan.repaymentSchedule = _repaymentSchedule;\n\n        requester = _requester;\n        ownershipToken = IERC20(_ownershipToken);\n        loanCurrency = IERC20(_loanCurrency);\n    }\n\n    function _getRepaymentScheduleSum () internal view returns (uint) {\n        uint repaymentSum;\n        for( uint s=0; s < loan.repayments; s++) {\n          repaymentSum = repaymentSum + loan.repaymentSchedule[s];\n        }\n        return repaymentSum;\n    }\n\n    function _getRepaymentTimestamp (uint _repayment) internal view returns (uint) {\n        return loan.startTime + ((_repayment+1) * loan.repaymentTenor);\n    }\n\n    function _getCyclesPast () internal view returns (uint) {\n        uint nextRepaymentTimestamp = _getRepaymentTimestamp(nextRepayment);\n        uint timeSinceRepayment = now - nextRepaymentTimestamp;\n        uint cyclesPast = timeSinceRepayment / loan.repaymentTenor;\n        cyclesPast = (nextRepayment + cyclesPast) > loan.repayments ? loan.repayments - nextRepayment : cyclesPast;\n    }\n\n    function _calcRepaymentAmount (uint _repaymentStartIndex,uint _repaymentCycles) internal view returns (uint) {\n        uint totalDue;\n        uint scheduleSum = _getRepaymentScheduleSum();\n        // TODO Account for interest rate\n        for (uint r = _repaymentStartIndex; r < (_repaymentStartIndex + _repaymentCycles); r++) {\n          totalDue = totalDue + (loan.principal * ( loan.repaymentSchedule[r] / scheduleSum ));\n        }\n        return totalDue;\n    }\n\n    function _getEffectiveRepaymentAmount (uint _amount) internal view returns (uint, uint) {\n        uint totalCyclesPast = _getCyclesPast();\n        uint totalDue = totalRepaymentDue();\n        uint exactCyclesPast;\n        uint exactAmountDue;\n\n        if (_amount >= totalDue || _amount == 0) {\n          return (totalDue, totalCyclesPast);\n        } else {\n          for (uint c=0; (c<totalCyclesPast && exactAmountDue < _amount); c++) {\n            uint cycleRepayment = _calcRepaymentAmount(nextRepayment, c+1);\n            if (_amount >= cycleRepayment) {\n              exactCyclesPast = c+1;\n              exactAmountDue = cycleRepayment;\n            }\n          }\n          return (exactAmountDue, exactCyclesPast);\n        }\n    }\n\n    function totalRepaymentDue () public view returns (uint) { //Doubles as repayment due check\n        uint cyclesPast = _getCyclesPast();\n        if (cyclesPast == 0) {\n          return 0;\n        } else {\n            // TODO Account for missed repayment penalties if cyclesPast > 1\n          return _calcRepaymentAmount(nextRepayment, cyclesPast);\n        }\n    }\n\n    function repayLoan (uint amount) public returns (bool) {\n        (uint totalDue, uint paidCycles) = _getEffectiveRepaymentAmount(amount);\n        require(_receiveTokens(address(loanCurrency), msg.sender, totalDue));\n        nextRepayment = nextRepayment + paidCycles;\n        // TODO Kill or freeze Tokens, once loan totally repaid\n        emit LoanRepayed(totalDue, paidCycles);\n    }\n\n    function repayLoan () public returns (bool) {\n        return repayLoan (0);\n    }\n\n    /* Overridden functions - We buy shares with a given loan token, not with ether */\n\n    /**\n     * @dev fallback function ***DO NOT OVERRIDE***\n     * Note that other contracts will transfer funds with a base gas stipend\n     * of 2300, which is not enough to call buyTokens. Consider calling\n     * buyTokens directly when purchasing tokens from a contract.\n     */\n    function () external payable {\n        buyTokens(msg.sender);\n    }\n\n    /**\n     * @dev low level token purchase ***DO NOT OVERRIDE***\n     * This function has a non-reentrancy guard, so it shouldn't be called by\n     * another `nonReentrant` function.\n     * @param beneficiary Recipient of the token purchase\n     * @param amount Value of tokens sent\n     */\n    function buyTokens(address beneficiary, uint amount) public nonReentrant {\n        // uint256 weiAmount = msg.value;\n        loanCurrency.safeTransferFrom(msg.sender, wallet(), amount);\n\n        _preValidatePurchase(beneficiary, amount);\n\n        // calculate token amount to be created\n        uint256 tokens = _getTokenAmount(amount);\n\n        // update state\n        _weiRaised = _weiRaised.add(amount);\n\n        _processPurchase(beneficiary, tokens);\n        emit TokensPurchased(msg.sender, beneficiary, amount, tokens);\n\n        _updatePurchasingState(beneficiary, amount);\n\n        _forwardFunds();\n        _postValidatePurchase(beneficiary, amount);\n    }\n}\n",
  "sourcePath": "/Users/thomas/Code/hackathon/enable/contracts/LoanRequest.sol",
  "compiler": {
    "name": "solc",
    "version": "0.5.2+commit.1df8f40c.Emscripten.clang"
  },
  "schemaVersion": "3.0.6",
  "updatedAt": "2019-04-26T02:35:59.682Z",
  "devdoc": {
    "methods": {
      "balanceOf(address)": {
        "return": "the balance of an account."
      },
      "buyTokens(address)": {
        "details": "low level token purchase ***DO NOT OVERRIDE*** This function has a non-reentrancy guard, so it shouldn't be called by another `nonReentrant` function.",
        "params": {
          "beneficiary": "Recipient of the token purchase"
        }
      },
      "buyTokens(address,uint256)": {
        "details": "low level token purchase ***DO NOT OVERRIDE*** This function has a non-reentrancy guard, so it shouldn't be called by another `nonReentrant` function.",
        "params": {
          "amount": "Value of tokens sent",
          "beneficiary": "Recipient of the token purchase"
        }
      },
      "cap()": {
        "return": "the cap of the crowdsale."
      },
      "capReached()": {
        "details": "Checks whether the cap has been reached.",
        "return": "Whether the cap was reached"
      },
      "claimRefund(address)": {
        "details": "Investors can claim refunds here if crowdsale is unsuccessful",
        "params": {
          "refundee": "Whose refund will be claimed."
        }
      },
      "closingTime()": {
        "return": "the crowdsale closing time."
      },
      "finalize()": {
        "details": "Must be called after crowdsale ends, to do some extra finalization work. Calls the contract's finalization function."
      },
      "finalized()": {
        "return": "true if the crowdsale is finalized, false otherwise."
      },
      "goal()": {
        "return": "minimum amount of funds to be raised in wei."
      },
      "goalReached()": {
        "details": "Checks whether funding goal was reached.",
        "return": "Whether funding goal was reached"
      },
      "hasClosed()": {
        "details": "Checks whether the period in which the crowdsale is open has already elapsed.",
        "return": "Whether crowdsale period has elapsed"
      },
      "isOpen()": {
        "return": "true if the crowdsale is open, false otherwise."
      },
      "openingTime()": {
        "return": "the crowdsale opening time."
      },
      "rate()": {
        "return": "the number of token units a buyer gets per wei."
      },
      "token()": {
        "return": "the token being sold."
      },
      "wallet()": {
        "return": "the address where funds are collected."
      },
      "weiRaised()": {
        "return": "the amount of wei raised."
      }
    }
  },
  "userdoc": {
    "methods": {}
  }
}