{
  "contractName": "LoanRequestFactory",
  "abi": [
    {
      "constant": false,
      "inputs": [],
      "name": "renounceOwnership",
      "outputs": [],
      "payable": false,
      "stateMutability": "nonpayable",
      "type": "function",
      "signature": "0x715018a6"
    },
    {
      "constant": true,
      "inputs": [],
      "name": "owner",
      "outputs": [
        {
          "name": "",
          "type": "address"
        }
      ],
      "payable": false,
      "stateMutability": "view",
      "type": "function",
      "signature": "0x8da5cb5b"
    },
    {
      "constant": true,
      "inputs": [],
      "name": "isOwner",
      "outputs": [
        {
          "name": "",
          "type": "bool"
        }
      ],
      "payable": false,
      "stateMutability": "view",
      "type": "function",
      "signature": "0x8f32d59b"
    },
    {
      "constant": false,
      "inputs": [
        {
          "name": "newOwner",
          "type": "address"
        }
      ],
      "name": "transferOwnership",
      "outputs": [],
      "payable": false,
      "stateMutability": "nonpayable",
      "type": "function",
      "signature": "0xf2fde38b"
    },
    {
      "inputs": [],
      "payable": false,
      "stateMutability": "nonpayable",
      "type": "constructor",
      "signature": "constructor"
    },
    {
      "anonymous": false,
      "inputs": [
        {
          "indexed": false,
          "name": "contractAddress",
          "type": "address"
        },
        {
          "indexed": true,
          "name": "requester",
          "type": "address"
        },
        {
          "indexed": false,
          "name": "ownershipToken",
          "type": "address"
        },
        {
          "indexed": true,
          "name": "loanCurrency",
          "type": "address"
        },
        {
          "indexed": false,
          "name": "principal",
          "type": "uint256"
        },
        {
          "indexed": false,
          "name": "interestRate",
          "type": "uint256"
        },
        {
          "indexed": false,
          "name": "repayments",
          "type": "uint256"
        },
        {
          "indexed": false,
          "name": "repaymentSchedule",
          "type": "uint256[]"
        }
      ],
      "name": "LoanRequestCreated",
      "type": "event",
      "signature": "0xdf5feb4dbe4210a2048c13d16501d90cf8bc1a2b481e255dc492d09ee2b2ec38"
    },
    {
      "anonymous": false,
      "inputs": [
        {
          "indexed": true,
          "name": "previousOwner",
          "type": "address"
        },
        {
          "indexed": true,
          "name": "newOwner",
          "type": "address"
        }
      ],
      "name": "OwnershipTransferred",
      "type": "event",
      "signature": "0x8be0079c531659141344cd1fd0a4f28419497f9722a3daafe3b4186f6b6457e0"
    },
    {
      "constant": false,
      "inputs": [
        {
          "name": "ownershipToken",
          "type": "address"
        },
        {
          "name": "loanCurrency",
          "type": "address"
        },
        {
          "name": "principal",
          "type": "uint256"
        },
        {
          "name": "interestRate",
          "type": "uint256"
        },
        {
          "name": "repayments",
          "type": "uint256"
        },
        {
          "name": "repaymentSchedule",
          "type": "uint256[]"
        }
      ],
      "name": "createLoanRequest",
      "outputs": [],
      "payable": false,
      "stateMutability": "nonpayable",
      "type": "function",
      "signature": "0x43a0e2aa"
    }
  ],
  "bytecode": "0x608060405234801561001057600080fd5b5060008054600160a060020a0319163317808255604051600160a060020a039190911691907f8be0079c531659141344cd1fd0a4f28419497f9722a3daafe3b4186f6b6457e0908290a3611f6f806100696000396000f3fe608060405234801561001057600080fd5b5060043610610073577c0100000000000000000000000000000000000000000000000000000000600035046343a0e2aa8114610078578063715018a6146101495780638da5cb5b146101515780638f32d59b14610175578063f2fde38b14610191575b600080fd5b610147600480360360c081101561008e57600080fd5b600160a060020a0382358116926020810135909116916040820135916060810135916080820135919081019060c0810160a08201356401000000008111156100d557600080fd5b8201836020820111156100e757600080fd5b8035906020019184602083028401116401000000008311171561010957600080fd5b9190808060200260200160405190810160405280939291908181526020018383602002808284376000920191909152509295506101b7945050505050565b005b61014761036d565b6101596103d7565b60408051600160a060020a039092168252519081900360200190f35b61017d6103e6565b604080519115158252519081900360200190f35b610147600480360360208110156101a757600080fd5b5035600160a060020a03166103f7565b6000338787878787876101c8610493565b8088600160a060020a0316600160a060020a0316815260200187600160a060020a0316600160a060020a0316815260200186600160a060020a0316600160a060020a0316815260200185815260200184815260200183815260200180602001828103825283818151815260200191508051906020019060200280838360005b8381101561025f578181015183820152602001610247565b5050505090500198505050505050505050604051809103906000f08015801561028c573d6000803e3d6000fd5b50905085600160a060020a031633600160a060020a03167fdf5feb4dbe4210a2048c13d16501d90cf8bc1a2b481e255dc492d09ee2b2ec38838a898989896040518087600160a060020a0316600160a060020a0316815260200186600160a060020a0316600160a060020a0316815260200185815260200184815260200183815260200180602001828103825283818151815260200191508051906020019060200280838360005b8381101561034c578181015183820152602001610334565b5050505090500197505050505050505060405180910390a350505050505050565b6103756103e6565b151561038057600080fd5b60008054604051600160a060020a03909116907f8be0079c531659141344cd1fd0a4f28419497f9722a3daafe3b4186f6b6457e0908390a36000805473ffffffffffffffffffffffffffffffffffffffff19169055565b600054600160a060020a031690565b600054600160a060020a0316331490565b6103ff6103e6565b151561040a57600080fd5b61041381610416565b50565b600160a060020a038116151561042b57600080fd5b60008054604051600160a060020a03808516939216917f8be0079c531659141344cd1fd0a4f28419497f9722a3daafe3b4186f6b6457e091a36000805473ffffffffffffffffffffffffffffffffffffffff1916600160a060020a0392909216919091179055565b604051611aa0806104a48339019056fe60806040523480156200001157600080fd5b5060405162001aa038038062001aa0833981018060405260e08110156200003757600080fd5b8151602083015160408401516060850151608086015160a087015160c08801805196989597949693959294919391830192916401000000008111156200007c57600080fd5b820160208101848111156200009057600080fd5b8151856020820283011164010000000082111715620000ae57600080fd5b5050600160008190559093508692508291504290620f4240820190308b811515620000d857600080fd5b600160a060020a0381161515620000ee57600080fd5b60039290925560028054600160a060020a03928316600160a060020a03199182161790915560018054929093169116179055428210156200012e57600080fd5b8181116200013b57600080fd5b6005919091556006556007805460ff19169055600081116200015c57600080fd5b6200016f64010000000062000256810204565b6200017962000266565b600160a060020a03909116815260405190819003602001906000f080158015620001a7573d6000803e3d6000fd5b5060098054600160a060020a031916600160a060020a039290921691909117905560085560008111620001d957600080fd5b600b5580518214620001ea57600080fd5b60108490556011839055601282905580516200020e90601590602084019062000277565b5050600c8054600160a060020a0319908116600160a060020a0398891617909155600d80548216968816969096179095555050600e80549093169190931617905550620002e4565b600254600160a060020a03165b90565b604051610759806200134783390190565b828054828255906000526020600020908101928215620002b5579160200282015b82811115620002b557825182559160200191906001019062000298565b50620002c3929150620002c7565b5090565b6200026391905b80821115620002c35760008155600101620002ce565b61105380620002f46000396000f3fe60806040526004361061014f5760003560e060020a900480634f935945116100ba578063b61e96a511610073578063b61e96a51461038b578063b7a8807c146103a0578063bffa55d5146103b5578063ec8ac4d8146103e8578063f966ade71461040e578063fc0c546a146104235761014f565b80634f935945146102be578063521eb273146102d357806370a08231146103045780637d3d652214610337578063ab7b1c891461034c578063b3f05b97146103765761014f565b80634042b66f1161010c5780634042b66f1461022257806347535d7b14610237578063494bfd3d1461024c57806349df728c146102615780634b6753bc146102945780634bb278f3146102a95761014f565b80630752881a1461015a5780631515bc2b146101935780632c4e722e146101bc578063355274ea146101e357806336ef000d146101f8578063401938831461020d575b61015833610438565b005b34801561016657600080fd5b506101586004803603604081101561017d57600080fd5b50600160a060020a0381351690602001356104f4565b34801561019f57600080fd5b506101a86105d5565b604080519115158252519081900360200190f35b3480156101c857600080fd5b506101d16105de565b60408051918252519081900360200190f35b3480156101ef57600080fd5b506101d16105e4565b34801561020457600080fd5b506101d16105ea565b34801561021957600080fd5b506101d16105ef565b34801561022e57600080fd5b506101d16105f5565b34801561024357600080fd5b506101a86105fb565b34801561025857600080fd5b506101d1610616565b34801561026d57600080fd5b506101586004803603602081101561028457600080fd5b5035600160a060020a0316610648565b3480156102a057600080fd5b506101d161067a565b3480156102b557600080fd5b50610158610680565b3480156102ca57600080fd5b506101a86106e3565b3480156102df57600080fd5b506102e86106f7565b60408051600160a060020a039092168252519081900360200190f35b34801561031057600080fd5b506101d16004803603602081101561032757600080fd5b5035600160a060020a0316610706565b34801561034357600080fd5b506101a8610721565b34801561035857600080fd5b506101a86004803603602081101561036f57600080fd5b503561072e565b34801561038257600080fd5b506101a86107ad565b34801561039757600080fd5b506102e86107b6565b3480156103ac57600080fd5b506101d16107c5565b3480156103c157600080fd5b50610158600480360360208110156103d857600080fd5b5035600160a060020a03166107cb565b610158600480360360208110156103fe57600080fd5b5035600160a060020a0316610438565b34801561041a57600080fd5b506101a8610872565b34801561042f57600080fd5b506102e861087e565b60008054600101908190553461044e838261088d565b6000610459826108bd565b60045490915061046f908363ffffffff6108da16565b60045561047c84826108f3565b60408051838152602081018390528151600160a060020a0387169233927f6faf93231a456e552dbc9961f58d9713ee4f2e69d15f1975b050ef0911053a7b929081900390910190a36104ce84836104f0565b6104d661093c565b6104e084836104f0565b505060005481146104f057600080fd5b5050565b60008054600101908190556105253361050b6106f7565b600e54600160a060020a031691908563ffffffff6109a216565b61052f838361088d565b600061053a836108bd565b600454909150610550908463ffffffff6108da16565b60045561055d84826108f3565b60408051848152602081018390528151600160a060020a0387169233927f6faf93231a456e552dbc9961f58d9713ee4f2e69d15f1975b050ef0911053a7b929081900390910190a36105af84846104f0565b6105b761093c565b6105c184846104f0565b5060005481146105d057600080fd5b505050565b60065442115b90565b60035490565b600b5490565b600181565b60085490565b60045490565b6000600554421015801561061157506006544211155b905090565b600080610621610a30565b90508015156106345760009150506105db565b610640600f5482610a7f565b9150506105db565b6106506107ad565b151561065b57600080fd5b610663610721565b151561066e57600080fd5b61067781610add565b50565b60065490565b60075460ff161561069057600080fd5b6106986105d5565b15156106a357600080fd5b6007805460ff191660011790556106b8610b38565b6040517f9270cc390c096600a1c17c44345a1ba689fafd99d97487b10cfccf86cf73183690600090a1565b6000600b546106f06105f5565b1015905090565b600254600160a060020a031690565b600160a060020a03166000908152600a602052604090205490565b60006008546106f06105f5565b600080600061073c84610c92565b600e54919350915061075890600160a060020a03163384610d25565b151561076357600080fd5b600f805482019055604080518381526020810183905281517ff44c63a3d75bcd98534aae05d2e718fe67a90b75d392d0cfcadb798f871ebd07929181900390910190a15050919050565b60075460ff1690565b600c54600160a060020a031681565b60055490565b6107d36107ad565b15156107de57600080fd5b6107e6610721565b156107f057600080fd5b600954604080517f51cff8d9000000000000000000000000000000000000000000000000000000008152600160a060020a038481166004830152915191909216916351cff8d991602480830192600092919082900301818387803b15801561085757600080fd5b505af115801561086b573d6000803e3d6000fd5b5050505050565b6000610611600061072e565b600154600160a060020a031690565b6108978282610dcd565b600b546108b2826108a66105f5565b9063ffffffff6108da16565b11156104f057600080fd5b60006108d460035483610dea90919063ffffffff16565b92915050565b6000828201838110156108ec57600080fd5b9392505050565b600160a060020a0382166000908152600a602052604090205461091c908263ffffffff6108da16565b600160a060020a039092166000908152600a602052604090209190915550565b600954604080517ff340fa010000000000000000000000000000000000000000000000000000000081523360048201529051600160a060020a039092169163f340fa01913491602480830192600092919082900301818588803b15801561085757600080fd5b60408051600160a060020a0385811660248301528416604482015260648082018490528251808303909101815260849091019091526020810180517bffffffffffffffffffffffffffffffffffffffffffffffffffffffff167f23b872dd00000000000000000000000000000000000000000000000000000000179052610a2a908590610e15565b50505050565b600080610a3e600f54610f14565b601454909150428290039060009082811515610a5657fe5b04905060106002015481600f540111610a6f5780610a77565b600f54601254035b905050505090565b6000806000610a8c610f25565b9050845b848601811015610ad3576015805483919083908110610aab57fe5b9060005260206000200154811515610abf57fe5b601054919004029290920191600101610a90565b5090949350505050565b610ae56105d5565b1515610af057600080fd5b600160a060020a0381166000908152600a6020526040812054908111610b1557600080fd5b600160a060020a0382166000908152600a60205260408120556104f08282610f61565b610b40610721565b15610c2057600960009054906101000a9004600160a060020a0316600160a060020a03166343d726d66040518163ffffffff1660e060020a028152600401600060405180830381600087803b158015610b9857600080fd5b505af1158015610bac573d6000803e3d6000fd5b50505050600960009054906101000a9004600160a060020a0316600160a060020a0316639af6549a6040518163ffffffff1660e060020a028152600401600060405180830381600087803b158015610c0357600080fd5b505af1158015610c17573d6000803e3d6000fd5b50505050610c8c565b600960009054906101000a9004600160a060020a0316600160a060020a0316638c52dc416040518163ffffffff1660e060020a028152600401600060405180830381600087803b158015610c7357600080fd5b505af1158015610c87573d6000803e3d6000fd5b505050505b610c905b565b6000806000610c9f610a30565b90506000610cab610616565b90506000808287101580610cbd575086155b15610cd05750909350909150610d209050565b60005b8481108015610ce157508782105b15610d13576000610cf7600f5483600101610a7f565b9050808910610d0a578160010193508092505b50600101610cd3565b5094509250610d20915050565b915091565b604080517f23b872dd000000000000000000000000000000000000000000000000000000008152600160a060020a0384811660048301523060248301526044820184905291516000928616916323b872dd91606480830192602092919082900301818787803b158015610d9757600080fd5b505af1158015610dab573d6000803e3d6000fd5b505050506040513d6020811015610dc157600080fd5b50600195945050505050565b610dd56105fb565b1515610de057600080fd5b6104f08282610f7e565b6000821515610dfb575060006108d4565b828202828482811515610e0a57fe5b04146108ec57600080fd5b610e2782600160a060020a0316610f9f565b1515610e3257600080fd5b6000606083600160a060020a0316836040518082805190602001908083835b60208310610e705780518252601f199092019160209182019101610e51565b6001836020036101000a0380198251168184511680821785525050505050509050019150506000604051808303816000865af19150503d8060008114610ed2576040519150601f19603f3d011682016040523d82523d6000602084013e610ed7565b606091505b5091509150811515610ee857600080fd5b600081511115610a2a57808060200190516020811015610f0757600080fd5b50511515610a2a57600080fd5b601454601354600192909201020190565b600080805b601254811015610f5b576015805482908110610f4257fe5b6000918252602090912001549190910190600101610f2a565b50905090565b6001546104f090600160a060020a0316838363ffffffff610fa716565b600160a060020a0382161515610f9357600080fd5b8015156104f057600080fd5b6000903b1190565b60408051600160a060020a038416602482015260448082018490528251808303909101815260649091019091526020810180517bffffffffffffffffffffffffffffffffffffffffffffffffffffffff167fa9059cbb000000000000000000000000000000000000000000000000000000001790526105d0908490610e1556fea165627a7a7230582052873f12bc8c6325fe0943ee5bfa30fb7d16782528de89bb0e461d05f1a0537d0029608060405234801561001057600080fd5b506040516020806107598339810180604052602081101561003057600080fd5b505160008054600160a060020a03191633179081905560408051600160a060020a03929092168252517f4101e71e974f68df5e9730cc223280b41654676bbb052cdcc735c3337e64d2d99181900360200190a1600160a060020a038116151561009857600080fd5b6002805460ff19600160a060020a03939093166101000261010060a860020a031990911617919091169055610687806100d26000396000f3fe6080604052600436106100b9576000357c0100000000000000000000000000000000000000000000000000000000900480638c52dc41116100815780638c52dc41146101b35780639af6549a146101c8578063c19d93fb146101dd578063c6dbdf6114610216578063e3a9db1a1461022b578063f340fa0114610270576100b9565b80632348238c146100be57806338af3eed146100f357806343d726d61461012457806351cff8d914610139578063685ca1941461016c575b600080fd5b3480156100ca57600080fd5b506100f1600480360360208110156100e157600080fd5b5035600160a060020a0316610296565b005b3480156100ff57600080fd5b50610108610329565b60408051600160a060020a039092168252519081900360200190f35b34801561013057600080fd5b506100f161033d565b34801561014557600080fd5b506100f16004803603602081101561015c57600080fd5b5035600160a060020a03166103a8565b34801561017857600080fd5b5061019f6004803603602081101561018f57600080fd5b5035600160a060020a03166103c8565b604080519115158252519081900360200190f35b3480156101bf57600080fd5b506100f16103e4565b3480156101d457600080fd5b506100f1610450565b3480156101e957600080fd5b506101f26104ac565b6040518082600281111561020257fe5b60ff16815260200191505060405180910390f35b34801561022257600080fd5b506101086104b5565b34801561023757600080fd5b5061025e6004803603602081101561024e57600080fd5b5035600160a060020a03166104c4565b60408051918252519081900360200190f35b6100f16004803603602081101561028657600080fd5b5035600160a060020a03166104df565b600054600160a060020a031633146102ad57600080fd5b600160a060020a03811615156102c257600080fd5b6000805473ffffffffffffffffffffffffffffffffffffffff1916600160a060020a03838116919091179182905560408051929091168252517f4101e71e974f68df5e9730cc223280b41654676bbb052cdcc735c3337e64d2d9916020908290030190a150565b6002546101009004600160a060020a031690565b600054600160a060020a0316331461035457600080fd5b60006002805460ff169081111561036757fe5b1461037157600080fd5b6002805460ff1916811790556040517f088672c3a6e342f7cd94a65ba63b79df24a8973927b4d05d803c44bbf787d12f90600090a1565b6103b1816103c8565b15156103bc57600080fd5b6103c581610505565b50565b600060016002805460ff16908111156103dd57fe5b1492915050565b600054600160a060020a031633146103fb57600080fd5b60006002805460ff169081111561040e57fe5b1461041857600080fd5b6002805460ff191660011790556040517f599d8e5a83cffb867d051598c4d70e805d59802d8081c1c7d6dffc5b6aca2b8990600090a1565b6002805460ff168181111561046157fe5b1461046b57600080fd5b600254604051600160a060020a036101009092049190911690303180156108fc02916000818181858888f193505050501580156103c5573d6000803e3d6000fd5b60025460ff1690565b600054600160a060020a031690565b600160a060020a031660009081526001602052604090205490565b60006002805460ff16908111156104f257fe5b146104fc57600080fd5b6103c5816105aa565b600054600160a060020a0316331461051c57600080fd5b600160a060020a038116600081815260016020526040808220805490839055905190929183156108fc02918491818181858888f19350505050158015610566573d6000803e3d6000fd5b50604080518281529051600160a060020a038416917f7084f5476618d8e60b11ef0d7d3f06914655adb8793e28ff7f018d4c76d505d5919081900360200190a25050565b600054600160a060020a031633146105c157600080fd5b600160a060020a03811660009081526001602052604090205434906105ec908263ffffffff61064216565b600160a060020a038316600081815260016020908152604091829020939093558051848152905191927f2da466a7b24304f47e87fa2e1e5a81b9831ce54fec19055ce277ca2f39ba42c492918290030190a25050565b60008282018381101561065457600080fd5b939250505056fea165627a7a72305820e0f304474848f42ab1bb682023a7b2502b8f73037dd0067c7320a97da9b399b40029a165627a7a7230582012fd66dcfc4df7529327caf635d289fae55df95f8532d9bebceec7917192077e0029",
  "source": "pragma solidity ^0.5.2;\n\nimport \"openzeppelin-solidity/contracts/ownership/Ownable.sol\";\nimport \"./LoanRequest.sol\";\n\ncontract LoanRequestFactory is Ownable {\n\n    event LoanRequestCreated(address contractAddress, address indexed requester, address ownershipToken, address indexed loanCurrency, uint principal, uint interestRate, uint repayments, uint[] repaymentSchedule);\n\n    constructor() Ownable() public {}\n\n    function createLoanRequest(address ownershipToken, address loanCurrency, uint principal, uint interestRate, uint repayments, uint[] memory repaymentSchedule) public {\n        LoanRequest loanRequest = new LoanRequest(msg.sender, ownershipToken, loanCurrency, principal, interestRate, repayments, repaymentSchedule);\n        emit LoanRequestCreated(address(loanRequest), msg.sender, ownershipToken, loanCurrency, principal, interestRate, repayments, repaymentSchedule);\n    }\n}\n",
  "sourcePath": "/Users/thomas/Code/hackathon/enable/contracts/LoanRequestFactory.sol",
  "compiler": {
    "name": "solc",
    "version": "0.5.2+commit.1df8f40c.Emscripten.clang"
  },
  "schemaVersion": "3.0.6",
  "updatedAt": "2019-04-26T02:36:17.308Z",
  "devdoc": {
    "methods": {
      "isOwner()": {
        "return": "true if `msg.sender` is the owner of the contract."
      },
      "owner()": {
        "return": "the address of the owner."
      },
      "renounceOwnership()": {
        "details": "Allows the current owner to relinquish control of the contract. It will not be possible to call the functions with the `onlyOwner` modifier anymore."
      },
      "transferOwnership(address)": {
        "details": "Allows the current owner to transfer control of the contract to a newOwner.",
        "params": {
          "newOwner": "The address to transfer ownership to."
        }
      }
    }
  },
  "userdoc": {
    "methods": {
      "renounceOwnership()": {
        "notice": "Renouncing ownership will leave the contract without an owner, thereby removing any functionality that is only available to the owner."
      }
    }
  }
}